:030BB40001080035
:100B2F00120B9E120B02120BA98F09758920758D5E
:100B3F00FD759850D28E8509993099FDC299120B87
:080B4F0076AF09120B8C80DE69
:0B0B9E0075A0F0E4F580C2B6C2B722DB
:070B5700E4F5087F107E2782
:100B5E00E4FDFCC3ED9FEE6480F8EC6480985007D2
:070B6E000DBD00010C80EC3D
:010B7500225D
:100B8C00D2B68F80D2B77F967E00120B5EC2B702B0
:020B9C000B5EEE
:040B76007F017E007D
:100B7A00C2B68F80D2B77F967E00120B5EC2B702D2
:020B8A000B5E00
:100B02007F987E3A120B5E7F307E00120B7A7F94C2
:100B12007E11120B5E7F387E00120B7A7F0C7E00F4
:0D0B2200120B7A120B767F067E00020B7A12
:10080000C2A0D2A1D2A2D2A320A428120B5720A406
:10081000050508120B5E20A4050508120B5AE50811
:1008200014600A14600A240270097F37227F412273
:100830007F422220A528120B5720A5050508120B80
:100840005E20A5050508120B5AE50814600A14601D
:100850000A240270097F38227F43227F442220A687
:1008600028120B5720A6050508120B5E20A60505C9
:1008700008120B5AE50814600A14600A2402700971
:100880007F39227F45227F462220A728120B57203E
:10089000A7050508120B5E20A7050508120B5AE5EF
:1008A0000814600A14600A240270097F2F227F470F
:1008B000227F4822D2A0C2A1D2A2D2A320A4281271
:1008C0000B5720A4050508120B5E20A4050508128D
:1008D0000B5AE50814600A14600A240270097F3478
:1008E000227F49227F4A2220A528120B5720A505E6
:1008F0000508120B5E20A5050508120B5AE5081421
:10090000600A14600A240270097F35227F4B227F1F
:100910004C2220A628120B5720A6050508120B5EB4
:1009200020A6050508120B5AE50814600A14600A8F
:10093000240270097F36227F4D227F4E2220A72875
:10094000120B5720A7050508120B5E20A705050806
:10095000120B5AE50814600A14600A240270097F19
:100960002A227F4F227F5022D2A0D2A1C2A2D2A39C
:1009700020A428120B5720A4050508120B5E20A402
:10098000050508120B5AE50814600A14600A2402CF
:1009900070097F31227F51227F522220A528120B1D
:1009A0005720A5050508120B5E20A5050508120BAA
:1009B0005AE50814600A14600A240270097F322282
:1009C0007F53227F542220A628120B5720A605050C
:1009D00008120B5E20A6050508120B5AE5081460E4
:1009E0000A14600A240270097F33227F55227F5641
:1009F0002220A728120B5720A7050508120B5E20FE
:100A0000A7050508120B5AE50814600A14600A24A9
:100A10000270097F2D227F57227F5822D2A0D2A1B7
:100A2000D2A2C2A320A409120B5A30A4FD120B7645
:100A300020A528120B5720A5050508120B5E20A53E
:100A4000050508120B5AE50814600A14600A24020E
:100A500070097F30227F59227F5A2220A609120B6B
:100A60005A30A6FD7F3D2220A709120B5A30A7FD60
:060A70007F2B227F6E22A5
:0A0BA9007F6EBF6E0512080080F891
:010BB300221F
:03000000020A767B
:0C0A7600787FE4F6D8FD758109020ABD06
:100A8200020B2FE493A3F8E493A34003F68001F250
:100A920008DFF48029E493A3F85407240CC8C33375
:100AA200C4540F4420C8834004F456800146F6DF44
:100AB200E4800B0102040810204080900BB4E47E15
:100AC200019360BCA3FF543F30E509541FFEE49339
:100AD200A360010ECF54C025E060A840B8E493A300
:100AE200FAE493A3F8E493A3C8C582C8CAC583CA2B
:100AF200F0A3C8C582C8CAC583CADFE9DEE780BEE3
:010BB700003D
:00000001FF
