:030B1600010800D3
:100A9300120B0D120A66758920758DFD759850D25B
:100AA3008E120B028F09120ADAAF09120AF08509B6
:080AB3009930B5FDC2B580E9E0
:090B0D0075A0F0E4F580F5B022BA
:070ABB00E4F5087F107E271F
:100AC200E4FDFCC3ED9FEE6480F8EC64809850076F
:070AD2000DBD00010C80ECDA
:010AD90022FA
:100AF000D2B68F80D2B77F967E00120AC2C2B702EA
:020B00000AC227
:040ADA007F017E001A
:100ADE00C2B68F80D2B77F967E00120AC2C2B7020C
:020AEE000AC23A
:100A66007F987E3A120AC27F307E00120ADE7F9499
:100A76007E11120AC27F387E00120ADE7F0C7E00CB
:0D0A8600120ADE120ADA7F067E00020ADE86
:10080000C2A0D2A1D2A2D2A320A41C120ABB20A4AF
:10081000050508120AC2E5081460060470067F3751
:10082000227F41227F422220A51C120ABB20A5055F
:100830000508120AC2E5081460060470067F382213
:100840007F43227F442220A61C120ABB20A6050556
:1008500008120AC2E5081460060470067F39227F78
:1008600045227F462220A71C120ABB20A7050508A7
:10087000120AC2E5081460060470067F2F227F4723
:10088000227F4822D2A0C2A1D2A2D2A320A41C12AD
:100890000ABB20A4050508120AC2E5081460060474
:1008A00070067F34227F49227F4A2220A51C120A2B
:1008B000BB20A5050508120AC2E5081460060470ED
:1008C000067F35227F4B227F4C2220A61C120ABBBA
:1008D00020A6050508120AC2E50814600604700681
:1008E0007F36227F4D227F4E2220A71C120ABB207A
:1008F000A7050508120AC2E5081460060470067F01
:100900002A227F4F227F5022D2A0D2A1C2A2D2A3FC
:1009100020A41C120ABB20A4050508120AC2E5087F
:100920001460060470067F31227F51227F522220FC
:10093000A51C120ABB20A5050508120AC2E5081469
:1009400060060470067F32227F53227F542220A645
:100950001C120ABB20A6050508120AC2E50814608D
:10096000060470067F33227F55227F562220A71C63
:10097000120ABB20A7050508120AC2E50814600682
:100980000470067F2D227F57227F5822D2A0D2A149
:10099000D2A2C2A320A409120ABE30A4FD120ADA10
:1009A00020A51C120ABB20A5050508120AC2E508ED
:1009B0001460060470067F30227F59227F5A22205D
:1009C000A609120ABE30A6FD7F3D2220A709120A01
:0A09D000BE30A7FD7F2B227F6E22B0
:0A0B02007F6EBF6E0512080080F838
:010B0C0022C6
:030000000209DA18
:0C09DA00787FE4F6D8FD758109020A213F
:1009E600020A93E493A3F8E493A34003F68001F28A
:1009F60008DFF48029E493A3F85407240CC8C33312
:100A0600C4540F4420C8834004F456800146F6DFE0
:100A1600E4800B0102040810204080900B16E47E4F
:100A2600019360BCA3FF543F30E509541FFEE493D5
:100A3600A360010ECF54C025E060A840B8E493A39C
:100A4600FAE493A3F8E493A3C8C582C8CAC583CAC7
:100A5600F0A3C8C582C8CAC583CADFE9DEE780BE7F
:010B190000DB
:00000001FF
