:070F290002080000010A00AC
:100EF500120F13120E70120F1E8F0B120EE380F6D7
:0B0F1300E4F5807590F0F5A0F5B02229
:040EAE007F107E270C
:100EB200E4FDFCC3ED9FEE6480F8EC64809850077B
:070EC2000DBD00010C80ECE6
:010EC9002206
:100EE300D2B78FA0D2B67F967E00120EB2C2B602E0
:020EF3000EB23D
:070ECA00120EB27F307E0022
:100ED100C2B78FA0D2B67F967E00120EB2C2B60202
:020EE1000EB24F
:100E70007F987E3A120ECA7F947E11120ECA7F2C82
:100E80007E01120EB27F301E120ED17F8A7E0212B8
:100E90000EB27F387E00120ED17F0C7E00120ED172
:0E0EA0007F017E00120ED17F067E00020ED171
:0E0F05007F027E00120ED17FDC7E05020EB24E
:10080000C290D291D292D293209468E4F508F5096F
:100810000509E50970020508120EAE20940B0509C2
:10082000E50970020508120EB220940B0509E509CE
:1008300070020508120EAE20940B0509E50970023E
:100840000508120EAE20940B0509E5097002050893
:10085000120EAEE5087019E50924FD600D14600D57
:1008600014600D240370097F37227F41227F4122CB
:100870007F422220956BE4F508F5090509E509702A
:10088000020508120EAE20950B0509E50970020558
:1008900008120EB220950B0509E509700205081231
:1008A0000EAE20950B0509E50970020508120EAE83
:1008B00020950B0509E50970020508120EAEE50842
:1008C000701CE50924FD600D14600D14600D2403F7
:1008D000700C7F38227F43227F43227F44227F4453
:1008E0002220966BE4F508F5090509E50970020573
:1008F00008120EAE20960B0509E5097002050812D4
:100900000EB220960B0509E50970020508120EAE1D
:1009100020960B0509E50970020508120EAE209617
:100920000B0509E50970020508120EAEE508701CFA
:10093000E50924FD600D14600D14600D2403700C96
:100940007F39227F45227F45227F46227F46222013
:10095000976BE4F508F5090509E509700205081229
:100960000EAE20970B0509E50970020508120EB2BC
:1009700020970B0509E50970020508120EAE2097B5
:100980000B0509E50970020508120EAE20970B054C
:1009900009E50970020508120EAEE508701CE509AC
:1009A00024FD600D14600D14600D2403700C7F2F66
:1009B000227F47227F47227F48227F4822D290C24F
:1009C00091D292D29320946BE4F508F5090509E5DC
:1009D0000970020508120EAE20940B0509E5097096
:1009E000020508120EB220940B0509E509700205F4
:1009F00008120EAE20940B0509E5097002050812D5
:100A00000EAE20940B0509E50970020508120EAE22
:100A1000E508701CE50924FD600D14600D14600DDF
:100A20002403700C7F34227F49227F49227F4A228F
:100A30007F4A2220956BE4F508F5090509E5097060
:100A4000020508120EAE20950B0509E50970020596
:100A500008120EB220950B0509E50970020508126F
:100A60000EAE20950B0509E50970020508120EAEC1
:100A700020950B0509E50970020508120EAEE50880
:100A8000701CE50924FD600D14600D14600D240335
:100A9000700C7F35227F4B227F4B227F4C227F4C74
:100AA0002220966BE4F508F5090509E509700205B1
:100AB00008120EAE20960B0509E509700205081212
:100AC0000EB220960B0509E50970020508120EAE5C
:100AD00020960B0509E50970020508120EAE209656
:100AE0000B0509E50970020508120EAEE508701C39
:100AF000E50924FD600D14600D14600D2403700CD5
:100B00007F36227F4D227F4D227F4E227F4E222034
:100B1000976E20976BE4F508F5090509E509700261
:100B20000508120EAE20970B0509E50970020508AD
:100B3000120EB220970B0509E50970020508120E86
:100B4000AE20970B0509E50970020508120EAE20CC
:100B5000970B0509E50970020508120EAEE508704D
:100B60001CE50924FD600D14600D14600D24037054
:100B70000C7F2A227F4F227F4F227F50227F5022DC
:100B8000D290D291C292D29320946BE4F508F509E9
:100B90000509E50970020508120EAE20940B05093F
:100BA000E50970020508120EB220940B0509E5094B
:100BB00070020508120EAE20940B0509E5097002BB
:100BC0000508120EAE20940B0509E5097002050810
:100BD000120EAEE508701CE50924FD600D14600DD1
:100BE00014600D2403700C7F31227F51227F51222B
:100BF0007F52227F522220956BE4F508F509050902
:100C0000E50970020508120EAE20950B0509E509ED
:100C100070020508120EB220950B0509E509700255
:100C20000508120EAE20950B0509E50970020508AE
:100C3000120EAE20950B0509E50970020508120E8B
:100C4000AEE508701CE50924FD600D14600D14600C
:100C50000D2403700C7F32227F53227F53227F5456
:100C6000227F542220966BE4F508F5090509E50971
:100C700070020508120EAE20960B0509E5097002F8
:100C80000508120EB220960B0509E5097002050849
:100C9000120EAE20960B0509E50970020508120E2A
:100CA000AE20960B0509E50970020508120EAEE5A7
:100CB00008701CE50924FD600D14600D14600D24FE
:100CC00003700C7F33227F55227F55227F56227F6F
:100CD000562220976E20976BE4F508F5090509E583
:100CE0000970020508120EAE20970B0509E5097080
:100CF000020508120EB220970B0509E509700205DE
:100D000008120EAE20970B0509E5097002050812BE
:100D10000EAE20970B0509E50970020508120EAE0C
:100D2000E508701CE50924FD600D14600D14600DCC
:100D30002403700C7F2D227F57227F57227F582259
:100D40007F5822D290D291D292C29320940D120E4B
:100D5000AE3094FD7F017E00120ED120956BE4F53C
:100D600008F5090509E50970020508120EAE20957F
:100D70000B0509E50970020508120EB220950B0556
:100D800009E50970020508120EAE20950B0509E56C
:100D90000970020508120EAE20950B0509E50970D1
:100DA000020508120EAEE508701CE50924FD600D71
:100DB00014600D14600D2403700C7F30227F5922C3
:100DC0007F59227F5A227F5A22209609120EAE3076
:100DD00096FD7F3D22209709120EAE3097FD7F2BA6
:040DE000227F6E22DE
:0A0F1E007F6EBF6E0512080080F818
:010F280022A6
:03000000020DE40A
:0C0DE400787FE4F6D8FD75810B020E2B21
:100DF000020EF5E493A3F8E493A34003F68001F216
:100E000008DFF48029E493A3F85407240CC8C33303
:100E1000C4540F4420C8834004F456800146F6DFD2
:100E2000E4800B0102040810204080900F29E47E2A
:100E3000019360BCA3FF543F30E509541FFEE493C7
:100E4000A360010ECF54C025E060A840B8E493A38E
:100E5000FAE493A3F8E493A3C8C582C8CAC583CAB9
:100E6000F0A3C8C582C8CAC583CADFE9DEE780BE71
:010F300000C0
:00000001FF
